{
  "contractName": "AdditionGame",
  "abi": [
    {
      "inputs": [],
      "payable": false,
      "stateMutability": "nonpayable",
      "type": "constructor"
    },
    {
      "constant": true,
      "inputs": [],
      "name": "owner",
      "outputs": [
        {
          "internalType": "address",
          "name": "",
          "type": "address"
        }
      ],
      "payable": false,
      "stateMutability": "view",
      "type": "function"
    },
    {
      "constant": true,
      "inputs": [],
      "name": "getBalance",
      "outputs": [
        {
          "internalType": "uint256",
          "name": "",
          "type": "uint256"
        }
      ],
      "payable": false,
      "stateMutability": "view",
      "type": "function"
    },
    {
      "constant": false,
      "inputs": [],
      "name": "deposit",
      "outputs": [],
      "payable": true,
      "stateMutability": "payable",
      "type": "function"
    },
    {
      "constant": false,
      "inputs": [
        {
          "internalType": "uint256",
          "name": "_value",
          "type": "uint256"
        }
      ],
      "name": "transfer",
      "outputs": [
        {
          "internalType": "bool",
          "name": "",
          "type": "bool"
        }
      ],
      "payable": false,
      "stateMutability": "nonpayable",
      "type": "function"
    }
  ],
  "bytecode": "0x608060405234801561001057600080fd5b50336000806101000a81548173ffffffffffffffffffffffffffffffffffffffff021916908373ffffffffffffffffffffffffffffffffffffffff160217905550610246806100606000396000f3fe60806040526004361061003f5760003560e01c806312065fe01461004457806312514bba1461006f5780638da5cb5b146100c2578063d0e30db014610119575b600080fd5b34801561005057600080fd5b50610059610123565b6040518082815260200191505060405180910390f35b34801561007b57600080fd5b506100a86004803603602081101561009257600080fd5b810190808035906020019092919050505061012b565b604051808215151515815260200191505060405180910390f35b3480156100ce57600080fd5b506100d7610191565b604051808273ffffffffffffffffffffffffffffffffffffffff1673ffffffffffffffffffffffffffffffffffffffff16815260200191505060405180910390f35b6101216101b6565b005b600047905090565b600081610136610123565b101561014157600080fd5b3373ffffffffffffffffffffffffffffffffffffffff166108fc839081150290604051600060405180830381858888f19350505050158015610187573d6000803e3d6000fd5b5060019050919050565b6000809054906101000a900473ffffffffffffffffffffffffffffffffffffffff1681565b6000809054906101000a900473ffffffffffffffffffffffffffffffffffffffff1673ffffffffffffffffffffffffffffffffffffffff163373ffffffffffffffffffffffffffffffffffffffff161461020f57600080fd5b56fea265627a7a72315820b12868fa0e2db1de4b82fe71c8ce6966d9ab9d6e4ff40cc841506fc2ca96870164736f6c63430005100032",
  "source": "pragma solidity ^0.5.0;\n\ncontract AdditionGame {\n    address public owner;\n\n    constructor() public {\n        owner = msg.sender;\n    }\n    \n    function getBalance() public view returns (uint) {\n        return address(this).balance;\n    }\n\n    function deposit() public payable {  \n        require(msg.sender == owner);\n    }   \n  \n    function transfer(uint _value) public returns (bool) {\n        require(getBalance() >= _value);\n        msg.sender.transfer(_value);\n        return true;\n    }\n}\n",
  "sourcePath": "/Users/wanjin/workspace/klaytn/addition-game-starter/contracts/AdditionGame.sol",
  "compiler": {
    "name": "solc",
    "version": "0.5.16+commit.9c3226ce.Emscripten.clang"
  },
  "schemaVersion": "3.4.7",
  "updatedAt": "2022-04-17T07:04:18.273Z",
  "networkType": "ethereum",
  "devdoc": {
    "methods": {}
  },
  "userdoc": {
    "methods": {}
  }
}